{
  "_format": "hh-sol-artifact-1",
  "contractName": "Utility",
  "sourceName": "contracts/utility.sol",
  "abi": [
    {
      "inputs": [
        {
          "internalType": "address",
          "name": "walletAddress",
          "type": "address"
        },
        {
          "internalType": "address[]",
          "name": "tokenAddresses",
          "type": "address[]"
        }
      ],
      "name": "getBalances",
      "outputs": [
        {
          "internalType": "address[]",
          "name": "",
          "type": "address[]"
        },
        {
          "internalType": "uint256[]",
          "name": "",
          "type": "uint256[]"
        }
      ],
      "stateMutability": "view",
      "type": "function"
    }
  ],
  "bytecode": "0x608060405234801561001057600080fd5b506106d7806100206000396000f3fe608060405234801561001057600080fd5b506004361061002b5760003560e01c80636a385ae914610030575b600080fd5b61004a600480360381019061004591906102d9565b610061565b60405161005892919061048a565b60405180910390f35b60608060008351905060008167ffffffffffffffff8111156100ac577f4e487b7100000000000000000000000000000000000000000000000000000000600052604160045260246000fd5b6040519080825280602002602001820160405280156100da5781602001602082028036833780820191505090505b50905060005b8281101561020957858181518110610121577f4e487b7100000000000000000000000000000000000000000000000000000000600052603260045260246000fd5b602002602001015173ffffffffffffffffffffffffffffffffffffffff166370a08231886040518263ffffffff1660e01b8152600401610161919061046f565b60206040518083038186803b15801561017957600080fd5b505afa15801561018d573d6000803e3d6000fd5b505050506040513d601f19601f820116820180604052508101906101b1919061032d565b8282815181106101ea577f4e487b7100000000000000000000000000000000000000000000000000000000600052603260045260246000fd5b6020026020010181815250508080610201906105cc565b9150506100e0565b5084819350935050509250929050565b600061022c610227846104f2565b6104c1565b9050808382526020820190508285602086028201111561024b57600080fd5b60005b8581101561027b57816102618882610285565b84526020840193506020830192505060018101905061024e565b5050509392505050565b60008135905061029481610673565b92915050565b600082601f8301126102ab57600080fd5b81356102bb848260208601610219565b91505092915050565b6000815190506102d38161068a565b92915050565b600080604083850312156102ec57600080fd5b60006102fa85828601610285565b925050602083013567ffffffffffffffff81111561031757600080fd5b6103238582860161029a565b9150509250929050565b60006020828403121561033f57600080fd5b600061034d848285016102c4565b91505092915050565b60006103628383610386565b60208301905092915050565b600061037a8383610460565b60208301905092915050565b61038f81610590565b82525050565b61039e81610590565b82525050565b60006103af8261053e565b6103b9818561056e565b93506103c48361051e565b8060005b838110156103f55781516103dc8882610356565b97506103e783610554565b9250506001810190506103c8565b5085935050505092915050565b600061040d82610549565b610417818561057f565b93506104228361052e565b8060005b8381101561045357815161043a888261036e565b975061044583610561565b925050600181019050610426565b5085935050505092915050565b610469816105c2565b82525050565b60006020820190506104846000830184610395565b92915050565b600060408201905081810360008301526104a481856103a4565b905081810360208301526104b88184610402565b90509392505050565b6000604051905081810181811067ffffffffffffffff821117156104e8576104e7610644565b5b8060405250919050565b600067ffffffffffffffff82111561050d5761050c610644565b5b602082029050602081019050919050565b6000819050602082019050919050565b6000819050602082019050919050565b600081519050919050565b600081519050919050565b6000602082019050919050565b6000602082019050919050565b600082825260208201905092915050565b600082825260208201905092915050565b600061059b826105a2565b9050919050565b600073ffffffffffffffffffffffffffffffffffffffff82169050919050565b6000819050919050565b60006105d7826105c2565b91507fffffffffffffffffffffffffffffffffffffffffffffffffffffffffffffffff82141561060a57610609610615565b5b600182019050919050565b7f4e487b7100000000000000000000000000000000000000000000000000000000600052601160045260246000fd5b7f4e487b7100000000000000000000000000000000000000000000000000000000600052604160045260246000fd5b61067c81610590565b811461068757600080fd5b50565b610693816105c2565b811461069e57600080fd5b5056fea26469706673582212204174f1a0fe1b26a3991d5dbd9e73c43f269a2a53e171293572fddb7c53d9bedc64736f6c63430008000033",
  "linkReferences": {},
  "deployedLinkReferences": {}
}